:020000040800F2
:100000000028002079100008091000080F100008CF
:10001000151000081B100008211000080000000047
:100020000000000000000000000000002710000891
:1000300033100008000000003F1000084B100008BB
:10004000C1100008C1100008C1100008C11000084C
:10005000C1100008C1100008C1100008C11000083C
:10006000C1100008C1100008C1100008C11000082C
:10007000C1100008C1100008C1100008C11000081C
:10008000C1100008C1100008C1100008C11000080C
:10009000C1100008C1100008C1100008C1100008FC
:1000A000C1100008C1100008C1100008C1100008EC
:1000B00059100008C110000800000000C11000081D
:1000C000C11000080000000000000000C11000087E
:1000D00000000000C1100008C1100008000000006E
:1000E000C1100008C1100008C11000080000000085
:1000F0000000000000000000000000000000000000
:0C01000000000000000000005FF808F1A3
:10010C0010B5054C237833B9044B13B10448AFF345
:10011C0000800123237010BD54000020000000005B
:10012C001827000808B5034B1BB103490348AFF36C
:10013C00008008BD000000005800002018270008AF
:10014C0080B400AF064B1B68012B04D1044B00227A
:10015C001A60012300E000231846BD4680BC70479E
:10016C007C00002080B400AF064B1B68012B04D12F
:10017C00044B00221A60012300E000231846BD4600
:10018C0080BC70478000002080B400AF064B1B6819
:10019C00012B04D1044B00221A60012300E0002340
:1001AC001846BD4680BC70478400002080B483B0E4
:1001BC0000AF78607B68002B02D10A4B01221A60D9
:1001CC007B68012B02D1084B01221A607B68022B41
:1001DC0002D1064B01221A6000BF0C37BD4680BC11
:1001EC00704700BF7C0000208000002084000020AD
:1001FC0080B582B000AF00237B6089E0494A7B6800
:10020C0052F8232048497B6841F82320474A7B68F1
:10021C0052F8232043497B6841F823207B68C3F1C3
:10022C000A03012202FA03F39BB21946404801F07B
:10023C002DFA034619463D4A7B6842F823103A4A88
:10024C007B6852F8232037497B6851F823309A4257
:10025C005BD1344A7B6852F8232034497B6851F8CF
:10026C0023309A4251D1334A7B6852F823202F49CC
:10027C007B6851F823309A4228D02C4A7B6852F87C
:10028C0023202C497B6841F82320284A7B6852F8AC
:10029C002330002B39D17868FFF788FF264A7B681A
:1002AC0052F82330002B0BD1244A7B684FF4967103
:1002BC0042F82310204A7B68012142F8231024E0E5
:1002CC001E4A7B68642142F823101EE0174A7B68A3
:1002DC0052F82330012B04D1174A7B68002142F8D5
:1002EC002310164A7B6852F823305A1E13497B6838
:1002FC0041F82320114A7B6852F82330002B04D19B
:10030C000C4A7B68012142F823107B6801337B6027
:10031C007B68022B7FF772AF00BF00BF0837BD466A
:10032C0080BD00BF0C000020000000201800002041
:10033C000008014024000020700000203000002044
:10034C0080B500AFBE4B1B680A2B00F2128201A2D3
:10035C0052F823F08D030008A5030008F5030008EC
:10036C0059040008BD040008210500088505000893
:10037C00E905000859060008BB0600081D0700081F
:10038C0001227F21AF4801F098F9AD4B0A221A6087
:10039C00642000F087FD01E2002000F03FFCFFF735
:1003AC00E1FE0346012B06D1A54B0C221A604FF43B
:1003BC007A7000F077FDFFF7E7FE0346012B06D1BC
:1003CC009F4B14221A604FF47A7000F06BFDFFF70C
:1003DC00B7FE0346012B40F0CE81994B01221A60E7
:1003EC00642000F05FFDC6E1012000F017FC964B85
:1003FC001B68012B05D1924B01221A60642000F07E
:10040C0051FDFFF7AFFE0346012B06D18C4B0D229D
:10041C001A604FF47A7000F045FDFFF7B5FE034605
:10042C00012B06D1864B0B221A604FF47A7000F028
:10043C0039FDFFF785FE0346012B40F09E81804B72
:10044C0001221A60642000F02DFD96E1022000F0DC
:10045C00E5FB7D4B1B68012B05D1794B02221A6001
:10046C00642000F01FFDFFF77DFE0346012B06D133
:10047C00734B0E221A604FF47A7000F013FDFFF7E5
:10048C0083FE0346012B06D16D4B0C221A604FF4F0
:10049C007A7000F007FDFFF753FE0346012B40F086
:1004AC006E81674B01221A60642000F0FBFC66E150
:1004BC00032000F0B3FB644B1B68012B05D1604B90
:1004CC0003221A60642000F0EDFCFFF74BFE03469C
:1004DC00012B06D15A4B0F221A604FF47A7000F0A0
:1004EC00E1FCFFF751FE0346012B06D1544B0D22C4
:1004FC001A604FF47A7000F0D5FCFFF721FE03462A
:10050C00012B40F03E814E4B01221A60642000F01A
:10051C00C9FC36E1042000F081FB4B4B1B68012B1E
:10052C0005D1474B04221A60642000F0BBFCFFF796
:10053C0019FE0346012B06D1414B10221A604FF4D1
:10054C007A7000F0AFFCFFF71FFE0346012B06D1BB
:10055C003B4B0E221A604FF47A7000F0A3FCFFF7AD
:10056C00EFFD0346012B40F00E81354B01221A6042
:10057C00642000F097FC06E1052000F04FFB324BA5
:10058C001B68012B05D12E4B05221A60642000F04C
:10059C0089FCFFF7E7FD0346012B06D1284B1122FE
:1005AC001A604FF47A7000F07DFCFFF7EDFD034606
:1005BC00012B06D1224B0F221A604FF47A7000F0F7
:1005CC0071FCFFF7BDFD0346012B40F0DE801C4B98
:1005DC0001221A60642000F065FCD6E0062000F0D1
:1005EC001DFB194B1B68012B05D1154B06221A60FC
:1005FC00642000F057FCFFF7B5FD0346012B06D134
:10060C000F4B12221A604FF47A7000F04BFCFFF77C
:10061C00BBFD0346012B06D1094B10221A604FF487
:10062C007A7000F03FFCFFF78BFD0346012B40F086
:10063C00AE80034B01221A60642000F033FCA6E06C
:10064C00880000200008014090000020072000F0E6
:10065C00E5FA534B1B68012B05D1524B07221A604C
:10066C00642000F01FFCFFF77DFD0346012B06D133
:10067C004C4B13221A604FF47A7000F013FCFFF706
:10068C0083FD0346012B06D1464B11221A604FF411
:10069C007A7000F007FCFFF753FD0346012B78D16D
:1006AC00404B01221A60642000F0FCFB71E0082032
:1006BC0000F0B4FA3A4B1B68012B05D1394B0822D8
:1006CC001A60642000F0EEFBFFF74CFD0346012B93
:1006DC0006D1344B14221A604FF47A7000F0E2FB0E
:1006EC00FFF752FD0346012B06D12E4B12221A6046
:1006FC004FF47A7000F0D6FBFFF722FD0346012B76
:10070C0049D1284B01221A60642000F0CBFB42E057
:10071C00092000F083FA224B1B68012B05D1214BD9
:10072C0009221A60642000F0BDFBFFF71BFD034695
:10073C00012B06D11B4B0B221A604FF47A7000F080
:10074C00B1FBFFF721FD0346012B06D1154B1322FC
:10075C001A604FF47A7000F0A5FBFFF7F1FC03462A
:10076C00012B1AD10F4B01221A60642000F09AFB66
:10077C0013E000BF12E000BF10E000BF0EE000BFAE
:10078C000CE000BF0AE000BF08E000BF06E000BFBD
:10079C0004E000BF02E000BF00E000BF00BF80BD6E
:1007AC00900000208800002080B500AFB84B1B687B
:1007BC000B3B092B00F2038201A252F823F000BF7D
:1007CC00F507000845080008A90800080D090008ED
:1007DC0071090008D5090008390A0008A50A0008A3
:1007EC00070B0008690B0008002000F017FAFFF750
:1007FC00B9FC0346012B06D1A54B0C221A604FF411
:10080C007A7000F04FFBFFF7BFFC0346012B06D1BB
:10081C009F4B14221A604FF47A7000F043FBFFF7E1
:10082C008FFC0346012B40F0CC81994B01221A60BE
:10083C00642000F037FBC4E1012000F0EFF9954B88
:10084C001B68012B05D1924B01221A60642000F029
:10085C0029FBFFF787FC0346012B06D18C4B0D229D
:10086C001A604FF47A7000F01DFBFFF78DFC034605
:10087C00012B06D1864B0B221A604FF47A7000F0D4
:10088C0011FBFFF75DFC0346012B40F09C81804B74
:10089C0001221A60642000F005FB94E1022000F0B4
:1008AC00BDF97C4B1B68012B05D1794B02221A60D8
:1008BC00642000F0F7FAFFF755FC0346012B06D134
:1008CC00734B0E221A604FF47A7000F0EBFAFFF7BC
:1008DC005BFC0346012B06D16D4B0C221A604FF4C6
:1008EC007A7000F0DFFAFFF72BFC0346012B40F087
:1008FC006C81674B01221A60642000F0D3FA64E12A
:10090C00032000F08BF9634B1B68012B05D1604B66
:10091C0003221A60642000F0C5FAFFF723FC03469B
:10092C00012B06D15A4B0F221A604FF47A7000F04B
:10093C00B9FAFFF729FC0346012B06D1544B0D22C3
:10094C001A604FF47A7000F0ADFAFFF7F9FB03462A
:10095C00012B40F03C814E4B01221A60642000F0C8
:10096C00A1FA34E1042000F059F94A4B1B68012B21
:10097C0005D1474B04221A60642000F093FAFFF76C
:10098C00F1FB0346012B06D1414B10221A604FF4A8
:10099C007A7000F087FAFFF7F7FB0346012B06D1BC
:1009AC003B4B0E221A604FF47A7000F07BFAFFF783
:1009BC00C7FB0346012B40F00C81354B01221A601A
:1009CC00642000F06FFA04E1052000F027F9314BA8
:1009DC001B68012B05D12E4B05221A60642000F0F8
:1009EC0061FAFFF7BFFB0346012B06D1284B1122FE
:1009FC001A604FF47A7000F055FAFFF7C5FB034606
:100A0C00012B06D1224B0F221A604FF47A7000F0A2
:100A1C0049FAFFF795FB0346012B40F0DC801C4B99
:100A2C0001221A60642000F03DFAD4E0062000F0A8
:100A3C00F5F8184B1B68012B05D1154B06221A60D3
:100A4C00642000F02FFAFFF78DFB0346012B06D133
:100A5C000F4B12221A604FF47A7000F023FAFFF752
:100A6C0093FB0346012B06D1094B10221A604FF45D
:100A7C007A7000F017FAFFF763FB0346012B40F086
:100A8C00AC80034B01221A60642000F00BFAA4E046
:100A9C008800002090000020072000F0BFF8534B86
:100AAC001B68012B05D1524B07221A60642000F001
:100ABC00F9F9FFF757FB0346012B06D14C4B1322D8
:100ACC001A604FF47A7000F0EDF9FFF75DFB034606
:100ADC00012B06D1464B11221A604FF47A7000F0AC
:100AEC00E1F9FFF72DFB0346012B78D1404B012296
:100AFC001A60642000F0D6F971E0082000F08EF83E
:100B0C003A4B1B68012B05D1394B08221A60642023
:100B1C0000F0C8F9FFF726FB0346012B06D1344B36
:100B2C0014221A604FF47A7000F0BCF9FFF72CFB1A
:100B3C000346012B06D12E4B12221A604FF47A7009
:100B4C0000F0B0F9FFF7FCFA0346012B49D1284B12
:100B5C0001221A60642000F0A5F942E0092000F09F
:100B6C005DF8224B1B68012B05D1214B09221A6021
:100B7C00642000F097F9FFF7F5FA0346012B06D134
:100B8C001B4B0B221A604FF47A7000F08BF9FFF7B5
:100B9C00FBFA0346012B06D1154B13221A604FF4B6
:100BAC007A7000F07FF9FFF7CBFA0346012B1AD1CC
:100BBC000F4B01221A60642000F074F913E000BF9F
:100BCC0012E000BF10E000BF0EE000BF0CE000BF61
:100BDC000AE000BF08E000BF06E000BF04E000BF71
:100BEC0002E000BF00E000BF00BF80BD900000200D
:100BFC008800002080B500AF064B1B68012B06D186
:100C0C00642000F063F92021034800F06EFD00BF62
:100C1C0080BD00BF980000200008014080B584B062
:100C2C0000AF78600023FB6017E00122FB6802FA3A
:100C3C0003F399B20D4A7B6813441B781A46FB6880
:100C4C0042FA03F3DBB203F00103DBB21A460848A5
:100C5C0000F033FDFB680133FB60FB68062BE4DD21
:100C6C0000BF00BF1037BD4680BD00BF3C00002058
:100C7C00000C014080B500AF00F01EFA00F018F82F
:100C8C0000F09EF800F050F8074801F07FF9074B90
:100C9C0000221A60032000F019F9FFF751FBFFF74F
:100CAC0083FDFFF7A7FFF8E79C00002088000020D9
:100CBC0080B590B000AF07F1180328220021184628
:100CCC0001F01CFD3B1D00221A605A609A60DA602C
:100CDC001A610223BB610123BB621023FB62002358
:100CEC007B6307F11803184600F018FD0346002B30
:100CFC0001D000F0D1F80F237B600023BB600023F0
:100D0C00FB6000233B6100237B613B1D00211846E7
:100D1C0000F084FF0346002B01D000F0BDF800BFAB
:100D2C004037BD4680BD000080B586B000AF07F1EE
:100D3C00080300221A605A609A60DA603B4600226F
:100D4C001A605A601D4B4FF080421A601B4B41F6E3
:100D5C003F725A60194B00229A60184B0922DA60D4
:100D6C00164B00221A61154B00229A61134801F0B0
:100D7C00BDF80346002B01D000F08EF84FF48053E1
:100D8C00BB6007F1080319460C4801F053FA0346FF
:100D9C00002B01D000F080F800233B6000237B6027
:100DAC003B461946054801F01BFC0346002B01D0BD
:100DBC0000F072F800BF1837BD4680BD9C000020C3
:100DCC0080B586B000AF07F1080300221A605A60A4
:100DDC009A60DA60274B9B69264A43F004039361BF
:100DEC00244B9B6903F004037B607B68214B9B695C
:100DFC00204A43F0080393611E4B9B6903F00803E0
:100E0C003B603B68002220211B4800F056FC00226E
:100E1C007F211A4800F051FC2023BB600123FB60AA
:100E2C0000233B6102237B6107F10803194612483A
:100E3C0000F0B2FA7F23BB600123FB6000233B610F
:100E4C0002237B6107F1080319460C4800F0A4FA51
:100E5C004FF4E063BB600023FB6001233B6107F1AF
:100E6C0008031946044800F097FA00BF1837BD462E
:100E7C0080BD00BF0010024000080140000C014082
:100E8C0080B582B000AF786000F034F8FFF7B0F9AD
:100E9C0000BF0837BD4680BD80B400AF72B600BF3E
:100EAC00FEE7000080B483B000AF7860054A7B6831
:100EBC001360054B00221A6000BF0C37BD4680BC86
:100ECC00704700BF8C0000209000002080B483B0DD
:100EDC0000AF7860054A7B681360054B00221A60EE
:100EEC0000BF0C37BD4680BC704700BF940000208B
:100EFC009800002080B400AF114B1B68002B0BDD59
:100F0C000F4B1B68013B0E4A13600D4B1B68002BEB
:100F1C0002DC0C4B01221A600B4B1B68002B0BDD07
:100F2C00094B1B68013B084A1360074B1B68002BDD
:100F3C0002DC064B01221A6000BFBD4680BC704724
:100F4C008C000020900000209400002098000020CD
:100F5C0080B485B000AF154B9B69144A43F0010374
:100F6C009361124B9B6903F00103BB60BB680F4B91
:100F7C00DB690E4A43F08053D3610C4BDB6903F001
:100F8C0080537B607B680A4B5B68FB60FB6823F0DB
:100F9C00E063FB60FB6843F08063FB60044AFB6822
:100FAC00536000BF1437BD4680BC70470010024030
:100FBC000000014080B584B000AF78607B681B688E
:100FCC00B3F1804F13D10C4BDB690B4A43F0010397
:100FDC00D361094BDB6903F00103FB60FB68002262
:100FEC0000211C2000F0A1F91C2000F0BAF900BF70
:100FFC001037BD4680BD00BF0010024080B400AF6A
:10100C00FEE780B400AFFEE780B400AFFEE780B42B
:10101C0000AFFEE780B400AFFEE780B400AF00BFC6
:10102C00BD4680BC704780B400AF00BFBD4680BCDD
:10103C00704780B400AF00BFBD4680BC704780B520
:10104C0000AF00F07FF800BF80BD000080B500AF9E
:10105C00024800F0E7FF00BF80BD00BF9C000020ED
:10106C0080B400AF00BFBD4680BC70470C480D4932
:10107C000D4A002302E0D458C4500433C4188C42E7
:10108C00F9D30A4A0A4C002301E013600432A2424D
:10109C00FBD3FFF7E5FF01F00DFBFFF7EBFD70470E
:1010AC0000000020540000205827000854000020A5
:1010BC00E8000020FEE7000080B500AF084B1B687D
:1010CC00074A43F010031360032000F023F90F20AC
:1010DC0000F008F8FFF73CFF0023184680BD00BF66
:1010EC000020024080B582B000AF7860124B1A68C5
:1010FC00124B1B7819464FF47A73B3FBF1F3B2FB26
:10110C00F3F3184600F03BF90346002B01D0012302
:10111C000EE07B680F2B0AD8002279684FF0FF3065
:10112C0000F003F9064A7B681360002300E00123FA
:10113C0018460837BD4680BD4800002050000020EE
:10114C004C00002080B400AF054B1B781A46054BB1
:10115C001B681344034A136000BFBD4680BC704734
:10116C0050000020E400002080B400AF024B1B684C
:10117C001846BD4680BC7047E400002080B485B0A2
:10118C0000AF78607B6803F00703FB600C4BDB68F7
:10119C00BB60BA684FF6FF031340BB60FB681A02D2
:1011AC00BB68134343F0BF6343F40033BB60044A92
:1011BC00BB68D36000BF1437BD4680BC704700BF0E
:1011CC0000ED00E080B400AF044BDB681B0A03F0B9
:1011DC0007031846BD4680BC704700BF00ED00E019
:1011EC0080B483B000AF0346FB7197F90730002B36
:1011FC000BDBFB7903F01F02064997F907305B09FB
:10120C00012000FA02F241F8232000BF0C37BD4642
:10121C0080BC704700E100E080B483B000AF0346AF
:10122C003960FB7197F90730002B0ADB3B68DAB2A7
:10123C000C4997F907301201D2B20B4483F8002302
:10124C000AE03B68DAB20849FB7903F00F03043B70
:10125C001201D2B20B441A7600BF0C37BD4680BCCB
:10126C00704700BF00E100E000ED00E080B489B001
:10127C0000AFF860B9607A60FB6803F00703FB61AC
:10128C00FB69C3F10703042B28BF0423BB61FB6973
:10129C000433062B02D9FB69033B00E000237B617E
:1012AC004FF0FF32BB6902FA03F3DA43BB681A4012
:1012BC007B699A404FF0FF317B6901FA03F3D94304
:1012CC007B680B40134318462437BD4680BC7047DF
:1012DC0080B582B000AF78607B68013BB3F1807F52
:1012EC0001D301230FE00A4A7B68013B53600F21B5
:1012FC004FF0FF30FFF790FF054B00229A60044B34
:10130C0007221A60002318460837BD4680BD00BF6F
:10131C0010E000E080B582B000AF78607868FFF72D
:10132C002DFF00BF0837BD4680BD80B586B000AF2D
:10133C000346B9607A60FB7300237B61FFF742FFC1
:10134C0078617A68B9687869FFF790FF024697F977
:10135C000F3011461846FFF75FFF00BF1837BD4628
:10136C0080BD80B582B000AF0346FB7197F90730A2
:10137C001846FFF735FF00BF0837BD4680BD80B566
:10138C0082B000AF78607868FFF7A2FF034618467A
:10139C000837BD4680BD000080B48BB000AF7860CC
:1013AC00396000237B6200233B6248E101227B6AA7
:1013BC0002FA03F3FB613B681B68FA691340BB61DB
:1013CC00BA69FB699A4240F037813B685B68A34A73
:1013DC0093425ED0A14A934275D8A14A934258D009
:1013EC009F4A93426FD89F4A934252D09D4A934250
:1013FC0069D89D4A93424CD09B4A934263D89B4AEE
:10140C00934246D0994A93425DD8122B2AD8122B7C
:10141C0059D801A252F823F09F140008791400083F
:10142C008B140008CD140008D3140008D314000842
:10143C00D3140008D3140008D3140008D3140008E4
:10144C00D3140008D3140008D3140008D3140008D4
:10145C00D3140008D3140008D31400088114000816
:10146C0095140008824A934213D02CE03B68DB6849
:10147C003B6229E03B68DB6804333B6224E03B6859
:10148C00DB6808333B621FE03B68DB680C333B6274
:10149C001AE03B689B68002B02D104233B6213E0EB
:1014AC003B689B68012B05D108233B627B68FA697A
:1014BC001A6109E008233B627B68FA695A6103E010
:1014CC0000233B6200E000BFBB69FF2B01D87B68A7
:1014DC0001E07B6804337B61BB69FF2B02D87B6A1C
:1014EC009B0002E07B6A083B9B003B617B691A68AE
:1014FC000F213B6901FA03F3DB431A40396A3B695C
:10150C0001FA03F31A437B691A603B685B6803F0CA
:10151C008053002B00F09080564B9B69554A43F04A
:10152C0001039361534B9B6903F00103BB60BB68E0
:10153C00514A7B6A9B08023352F82330FB607B6A6A
:10154C0003F003039B000F2202FA03F3DB43FA6858
:10155C001340FB607B68494A93420DD07B68484A34
:10156C00934207D07B68474A934201D1022304E09F
:10157C00032302E0012300E000237A6A02F0030255
:10158C0092009340FA681343FB603B497B6A9B08CB
:10159C000233FA6841F823203B685B6803F480331C
:1015AC00002B06D0384B1A683749BB6913430B60C4
:1015BC0006E0354B1A68BB69DB43334913400B60BB
:1015CC003B685B6803F40033002B06D02E4B5A6843
:1015DC002D49BB6913434B6006E02B4B5A68BB6922
:1015EC00DB43294913404B603B685B6803F4801371
:1015FC00002B06D0244B9A682349BB6913438B609C
:10160C0006E0214B9A68BB69DB431F4913408B6092
:10161C003B685B6803F40013002B06D01A4BDA68A6
:10162C001949BB691343CB6006E0174BDA68BB69F9
:10163C00DB4315491340CB607B6A01337B623B680B
:10164C001A687B6A22FA03F3002B7FF4AFAE00BF5B
:10165C0000BF2C37BD4680BC704700BF0000321065
:10166C0000003110000022100000211000001210A8
:10167C000000111000100240000001400008014061
:10168C00000C0140001001400004014080B485B002
:10169C0000AF78600B467B807B689A687B88134030
:1016AC00002B02D00123FB7301E00023FB73FB7BB7
:1016BC0018461437BD4680BC704780B483B000AF69
:1016CC0078600B467B8013467B707B78002B03D0B5
:1016DC007A887B681A6103E07B881A047B681A613C
:1016EC0000BF0C37BD4680BC704780B485B000AFDE
:1016FC0078600B467B807B68DB68FB607A88FB68D4
:10170C0013401A04FB68D9437B880B401A437B684F
:10171C001A6100BF1437BD4680BC704780B586B0D7
:10172C0000AF78607B68002B01D101236CE27B68F1
:10173C001B6803F00103002B00F08780924B5B6861
:10174C0003F00C03042B0CD08F4B5B6803F00C03E1
:10175C00082B12D18C4B5B6803F48033B3F5803FBC
:10176C000BD1894B1B6803F40033002B6CD07B68C6
:10177C005B68002B68D1012346E27B685B68B3F59C
:10178C00803F06D1804B1B687F4A43F48033136043
:10179C002EE07B685B68002B0CD17B4B1B687A4A74
:1017AC0023F480331360784B1B68774A23F480232F
:1017BC0013601DE07B685B68B3F5A02F0CD1724BF6
:1017CC001B68714A43F4802313606F4B1B686E4A8D
:1017DC0043F4803313600BE06B4B1B686A4A23F4B1
:1017EC0080331360684B1B68674A23F480231360B3
:1017FC007B685B68002B13D0FFF7B6FC386108E000
:10180C00FFF7B2FC02463B69D31A642B01D90323C0
:10181C00FAE15D4B1B6803F40033002BF0D014E0AD
:10182C00FFF7A2FC386108E0FFF79EFC02463B691B
:10183C00D31A642B01D90323E6E1534B1B6803F441
:10184C000033002BF0D100E000BF7B681B6803F075
:10185C000203002B63D04C4B5B6803F00C03002B92
:10186C000BD0494B5B6803F00C03082B1CD1464B87
:10187C005B6803F48033002B16D1434B1B6803F0D9
:10188C000203002B05D07B681B69012B01D00123BF
:10189C00BAE13D4B1B6823F0F8027B685B69DB0007
:1018AC00394913430B603AE07B681B69002B20D04D
:1018BC00364B01221A60FFF757FC386108E0FFF73E
:1018CC0053FC02463B69D31A022B01D903239BE13B
:1018DC002D4B1B6803F00203002BF0D02A4B1B6826
:1018EC0023F0F8027B685B69DB00274913430B602C
:1018FC0015E0264B00221A60FFF736FC386108E031
:10190C00FFF732FC02463B69D31A022B01D90323A1
:10191C007AE11D4B1B6803F00203002BF0D17B68AE
:10192C001B6803F00803002B3AD07B689B69002BE3
:10193C0019D0174B01221A60FFF716FC386108E02A
:10194C00FFF712FC02463B69D31A022B01D9032381
:10195C005AE10D4B5B6A03F00203002BF0D001201F
:10196C0000F0A6FA1CE00A4B00221A60FFF7FCFB01
:10197C0038610FE0FFF7F8FB02463B69D31A022BE4
:10198C0008D9032340E100BF00100240000042428E
:10199C00800442429E4B5B6A03F00203002BE9D1A8
:1019AC007B681B6803F00403002B00F0A680002367
:1019BC00FB75974BDB6903F08053002B0DD1944BD7
:1019CC00DB69934A43F08053D361914BDB6903F09D
:1019DC008053BB60BB680123FB758E4B1B6803F403
:1019EC008073002B18D18B4B1B688A4A43F480738D
:1019FC001360FFF7B9FB386108E0FFF7B5FB02464F
:101A0C003B69D31A642B01D90323FDE0814B1B687E
:101A1C0003F48073002BF0D07B68DB68012B06D1BC
:101A2C007B4B1B6A7A4A43F0010313622DE07B68FF
:101A3C00DB68002B0CD1764B1B6A754A23F0010333
:101A4C001362734B1B6A724A23F0040313621CE08B
:101A5C007B68DB68052B0CD16D4B1B6A6C4A43F021
:101A6C00040313626A4B1B6A694A43F00103136255
:101A7C000BE0674B1B6A664A23F001031362644B4D
:101A8C001B6A634A23F0040313627B68DB68002B38
:101A9C0015D0FFF769FB38610AE0FFF765FB0246DA
:101AAC003B69D31A41F28832934201D90323ABE04C
:101ABC00574B1B6A03F00203002BEED014E0FFF728
:101ACC0053FB38610AE0FFF74FFB02463B69D31A20
:101ADC0041F28832934201D9032395E04C4B1B6AA7
:101AEC0003F00203002BEED1FB7D012B05D1484BFB
:101AFC00DB69474A23F08053D3617B68DB69002B99
:101B0C0000F08180424B5B6803F00C03082B61D022
:101B1C007B68DB69022B46D13F4B00221A60FFF732
:101B2C0023FB386108E0FFF71FFB02463B69D31A21
:101B3C00022B01D9032367E0354B1B6803F00073BC
:101B4C00002BF0D17B681B6AB3F5803F08D1304B7A
:101B5C005B6823F400327B689B682D4913434B6010
:101B6C002B4B5B6823F474127B68196A7B685B6A85
:101B7C000B43274913434B60274B01221A60FFF795
:101B8C00F3FA386108E0FFF7EFFA02463B69D31A23
:101B9C00022B01D9032337E01D4B1B6803F00073A4
:101BAC00002BF0D02FE01C4B00221A60FFF7DCFA60
:101BBC00386108E0FFF7D8FA02463B69D31A022BCA
:101BCC0001D9032320E0124B1B6803F00073002B98
:101BDC00F0D118E07B68DB69012B01D1012313E004
:101BEC000B4B5B68FB60FB6803F480327B681B6A01
:101BFC009A4206D1FB6803F470127B685B6A9A42C6
:101C0C0001D0012300E0002318461837BD4680BDE3
:101C1C0000100240007000406000424280B584B069
:101C2C0000AF786039607B68002B01D10123D0E0D4
:101C3C006A4B1B6803F007033A689A4210D9674B4A
:101C4C001B6823F0070265493B6813430B60634B29
:101C5C001B6803F007033A689A4201D00123B8E0ED
:101C6C007B681B6803F00203002B20D07B681B6889
:101C7C0003F00403002B05D0594B5B68584A43F41E
:101C8C00E06353607B681B6803F00803002B05D0EE
:101C9C00534B5B68524A43F460535360504B5B6840
:101CAC0023F0F0027B689B684D4913434B607B68C3
:101CBC001B6803F00103002B40D07B685B68012B91
:101CCC0007D1474B1B6803F40033002B15D10123BC
:101CDC007FE07B685B68022B07D1414B1B6803F0EC
:101CEC000073002B09D1012373E03D4B1B6803F0FB
:101CFC000203002B01D101236BE0394B5B6823F00D
:101D0C0003027B685B68364913434B60FFF72CFA80
:101D1C00F8600AE0FFF728FA0246FB68D31A41F292
:101D2C008832934201D9032353E02D4B5B6803F0B7
:101D3C000C027B685B689B009A42EBD1274B1B68BB
:101D4C0003F007033A689A4210D2244B1B6823F025
:101D5C00070222493B6813430B60204B1B6803F0BE
:101D6C0007033A689A4201D0012332E07B681B6872
:101D7C0003F00403002B08D0194B5B6823F4E062DA
:101D8C007B68DB68164913434B607B681B6803F068
:101D9C000803002B09D0124B5B6823F460527B685C
:101DAC001B69DB000E4913434B6000F021F802461F
:101DBC000B4B5B681B0903F00F030A49CB5C22FA3F
:101DCC0003F3094A1360094B1B681846FFF78AF99D
:101DDC00002318461037BD4680BD00BF00200240CE
:101DEC000010024040270008480000204C00002052
:101DFC0090B48AB000AF2A4B3C1D0FCB84E80F0087
:101E0C0040F201233B800023FB610023BB610023D4
:101E1C007B6200237B6100233B62224B5B68FB618E
:101E2C00FB6903F00C03042B02D0082B03D02DE02C
:101E3C001D4B3B622DE0FB699B0C03F00F0307F17C
:101E4C002802134413F8243C7B61FB6903F48033B0
:101E5C00002B13D0134B5B685B0C03F0010307F1F1
:101E6C002802134413F8283CBB617B690E4A02FB21
:101E7C0003F2BB69B2FBF3F37B6204E07B690B4AB0
:101E8C0002FB03F37B627B6A3B6202E0064B3B6224
:101E9C0000BF3B6A18462837BD4690BC704700BF50
:101EAC00302700080010024000127A0000093D00A3
:101EBC0080B485B000AF78600A4B1B680A4AA2FB5D
:101ECC0003235B0A7A6802FB03F3FB6000BFFB6829
:101EDC005A1EFA60002BF9D100BF00BF1437BD4663
:101EEC0080BC704748000020D34D621080B582B092
:101EFC0000AF78607B68002B01D1012341E07B6847
:101F0C0093F83D30DBB2002B06D17B68002283F8BE
:101F1C003C207868FFF74EF87B68022283F83D205E
:101F2C007B681A687B6804331946104600F06AFA1D
:101F3C007B68012283F846207B68012283F83E20CF
:101F4C007B68012283F83F207B68012283F84020C4
:101F5C007B68012283F841207B68012283F84220B0
:101F6C007B68012283F843207B68012283F844209C
:101F7C007B68012283F845207B68012283F83D2091
:101F8C00002318460837BD4680BD000080B485B0DC
:101F9C0000AF78607B6893F83D30DBB2012B01D049
:101FAC00012335E07B68022283F83D207B681B68A7
:101FBC00DA687B681B6842F00102DA607B681B6898
:101FCC00164A934209D07B681B68B3F1804F04D04A
:101FDC007B681B68124A934211D17B681B689B6813
:101FEC0003F00703FB60FB68062B10D07B681B68B3
:101FFC001A687B681B6842F001021A6007E07B6874
:10200C001B681A687B681B6842F001021A60002387
:10201C0018461437BD4680BC704700BF002C0140E9
:10202C000004004080B582B000AF78607B681B680C
:10203C001B6903F00203022B22D17B681B68DB684F
:10204C0003F00203022B1BD17B681B686FF00202AA
:10205C001A617B6801221A777B681B689B6903F005
:10206C000303002B03D0786800F0B1F905E0786821
:10207C0000F0A4F9786800F0B3F97B6800221A77B5
:10208C007B681B681B6903F00403042B22D17B685B
:10209C001B68DB6803F00403042B1BD17B681B68F3
:1020AC006FF004021A617B6802221A777B681B6846
:1020BC009B6903F44073002B03D0786800F087F918
:1020CC0005E0786800F07AF9786800F089F97B68A7
:1020DC0000221A777B681B681B6903F00803082B26
:1020EC0022D17B681B68DB6803F00803082B1BD12B
:1020FC007B681B686FF008021A617B6804221A77F0
:10210C007B681B68DB6903F00303002B03D0786842
:10211C0000F05DF905E0786800F050F9786800F09F
:10212C005FF97B6800221A777B681B681B6903F0D8
:10213C001003102B22D17B681B68DB6803F01003A3
:10214C00102B1BD17B681B686FF010021A617B6827
:10215C0008221A777B681B68DB6903F44073002B39
:10216C0003D0786800F033F905E0786800F026F9C0
:10217C00786800F035F97B6800221A777B681B6859
:10218C001B6903F00103012B0ED17B681B68DB6814
:10219C0003F00103012B07D17B681B686FF0010270
:1021AC001A617868FEF76CFE7B681B681B6903F08C
:1021BC008003802B0ED17B681B68DB6803F08003E7
:1021CC00802B07D17B681B686FF080021A617868DE
:1021DC0000F067FA7B681B681B6903F04003402B17
:1021EC000ED17B681B68DB6803F04003402B07D1E2
:1021FC007B681B686FF040021A61786800F0F9F890
:10220C007B681B681B6903F02003202B0ED17B68B5
:10221C001B68DB6803F02003202B07D17B681B684D
:10222C006FF020021A61786800F032FA00BF0837AC
:10223C00BD4680BD80B584B000AF786039607B68E6
:10224C0093F83C30012B01D10223B3E07B680122CF
:10225C0083F83C207B68022283F83D207B681B6856
:10226C009B68FB60FB6823F07703FB60FB6823F43F
:10227C007F43FB607B681B68FA689A603B681B684D
:10228C00B3F5005F3ED0B3F5005F00F28780B3F585
:10229C00805F00F08580B3F5805F7FD8702B1AD0FB
:1022AC00702B7BD8602B50D0602B77D8502B3CD028
:1022BC00502B73D8402B58D0402B6FD8302B64D078
:1022CC00302B6BD8202B60D0202B67D8002B5CD008
:1022DC00102B5AD062E07B6818683B6899683B68A1
:1022EC005A683B68DB6800F05CF97B681B689B688C
:1022FC00FB60FB6843F07703FB607B681B68FA6844
:10230C009A604EE07B6818683B6899683B685A682D
:10231C003B68DB6800F045F97B681B689A687B6852
:10232C001B6842F480429A603BE07B6818683B680B
:10233C0059683B68DB681A4600F0BCF87B681B6880
:10234C005021184600F013F92BE07B6818683B68A5
:10235C0059683B68DB681A4600F0DAF87B681B6842
:10236C006021184600F003F91BE07B6818683B6895
:10237C0059683B68DB681A4600F09CF87B681B6860
:10238C004021184600F0F3F80BE07B681A683B68B4
:10239C001B681946104600F0EAF802E000BF00E0A6
:1023AC0000BF7B68012283F83D207B68002283F804
:1023BC003C20002318461037BD4680BD80B483B046
:1023CC0000AF786000BF0C37BD4680BC704780B44E
:1023DC0083B000AF786000BF0C37BD4680BC70473F
:1023EC0080B483B000AF786000BF0C37BD4680BCB2
:1023FC00704780B483B000AF786000BF0C37BD4627
:10240C0080BC704780B485B000AF786039607B6861
:10241C001B68FB607B68254A934207D07B68B3F14D
:10242C00804F03D07B68224A934208D1FB6823F08B
:10243C007003FB603B685B68FA681343FB607B6866
:10244C001A4A934207D07B68B3F1804F03D07B6864
:10245C00174A934208D1FB6823F44073FB603B6836
:10246C00DB68FA681343FB60FB6823F080023B686F
:10247C005B691343FB607B68FA681A603B689A6877
:10248C007B68DA623B681A687B689A627B68074AE9
:10249C00934203D13B681A697B681A637B680122FB
:1024AC005A6100BF1437BD4680BC7047002C0140F8
:1024BC000004004080B487B000AFF860B9607A6067
:1024CC00FB681B6A7B61FB681B6A23F00102FB68DB
:1024DC001A62FB689B693B613B6923F0F0033B612B
:1024EC007B681B013A6913433B617B6923F00A0348
:1024FC007B617A69BB6813437B61FB683A699A61BB
:10250C00FB687A691A6200BF1C37BD4680BC7047F5
:10251C0080B487B000AFF860B9607A60FB681B6A62
:10252C0023F01002FB681A62FB689B697B61FB68F5
:10253C001B6A3B617B6923F470437B617B681B03E3
:10254C007A6913437B613B6923F0A0033B61BB6851
:10255C001B013A6913433B61FB687A699A61FB681A
:10256C003A691A6200BF1C37BD4680BC704780B404
:10257C0085B000AF786039607B689B68FB60FB6856
:10258C0023F07003FB603A68FB68134343F00703C6
:10259C00FB607B68FA689A6000BF1437BD4680BC4C
:1025AC00704780B487B000AFF860B9607A603B6068
:1025BC00FB689B687B617B6923F47F437B613B6891
:1025CC001A027B681A43BB6813437A6913437B6115
:1025DC00FB687A699A6000BF1C37BD4680BC7047A7
:1025EC0080B485B000AF786039607B6893F83C307C
:1025FC00012B01D1022341E07B68012283F83C20AE
:10260C007B68022283F83D207B681B685B68FB605B
:10261C007B681B689B68BB60FB6823F07003FB60E6
:10262C003B681B68FA681343FB607B681B68FA689D
:10263C005A607B681B68144A934209D07B681B68FC
:10264C00B3F1804F04D07B681B68104A93420CD1C5
:10265C00BB6823F08003BB603B685B68BA681343BC
:10266C00BB607B681B68BA689A607B68012283F840
:10267C003D207B68002283F83C2000231846143749
:10268C00BD4680BC704700BF002C014000040040D8
:10269C0080B483B000AF786000BF0C37BD4680BCFF
:1026AC00704780B483B000AF786000BF0C37BD4674
:1026BC0080BC704770B500260C4D0D4C641BA410EB
:1026CC00A64209D100F022F800260A4D0A4C641BE0
:1026DC00A410A64205D170BD55F8043B98470136AD
:1026EC00EEE755F8043B98470136F2E7502700080F
:1026FC0050270008502700085427000803460244BE
:10270C00934200D1704703F8011BF9E7F8B500BFFD
:10271C00F8BC08BC9E467047F8B500BFF8BC08BCB6
:04272C009E4670470E
:1027300002030405060708090A0B0C0D0E0F101002
:102740000000000000000000010203040607080961
:04275000310100084B
:042754000D0100086B
:10275800010000000100000001000000010000006D
:10276800010000000100000001000000010000005D
:10277800010000000100000001000000010000004D
:10278800C8000000C8000000C8000000C0F9A4B0DC
:10279800991282F8809000000024F40010000000D4
:0427A800010000002C
:040000050800107966
:00000001FF
